{
  "abi": [
    {
      "inputs": [],
      "name": "sender",
      "outputs": [
        {
          "internalType": "address",
          "name": "",
          "type": "address"
        }
      ],
      "stateMutability": "view",
      "type": "function"
    },
    {
      "inputs": [
        {
          "internalType": "address",
          "name": "to",
          "type": "address"
        },
        {
          "internalType": "uint256",
          "name": "amount",
          "type": "uint256"
        }
      ],
      "name": "tryTransfer",
      "outputs": [],
      "stateMutability": "nonpayable",
      "type": "function"
    }
  ],
  "bytecode": {
    "object": "0x608060405234801561001057600080fd5b50610103806100206000396000f3fe6080604052348015600f57600080fd5b506004361060325760003560e01c8063010a7d6514603757806367e404ce146048575b600080fd5b6046604236600460c0565b6076565b005b600054605a906001600160a01b031681565b6040516001600160a01b03909116815260200160405180910390f35b600080546001600160a01b031916331781556040516001600160a01b0384169183156108fc02918491818181858888f1935050505015801560bb573d6000803e3d6000fd5b505050565b6000806040838503121560d257600080fd5b82356001600160a01b038116811460e857600080fd5b94602093909301359350505056fea164736f6c634300080c000a",
    "linkReferences": {}
  }
}