{
  "abi": [
    {
      "inputs": [
        {
          "components": [
            {
              "internalType": "bytes",
              "name": "data",
              "type": "bytes"
            },
            {
              "internalType": "bytes",
              "name": "nextOffset",
              "type": "bytes"
            }
          ],
          "internalType": "struct Ghost.Payload",
          "name": "payload",
          "type": "tuple"
        },
        {
          "internalType": "address",
          "name": "to",
          "type": "address"
        },
        {
          "internalType": "bytes",
          "name": "data",
          "type": "bytes"
        }
      ],
      "name": "addCallToPayload",
      "outputs": [
        {
          "internalType": "bytes",
          "name": "",
          "type": "bytes"
        }
      ],
      "stateMutability": "pure",
      "type": "function"
    },
    {
      "inputs": [
        {
          "components": [
            {
              "internalType": "bytes",
              "name": "data",
              "type": "bytes"
            },
            {
              "internalType": "bytes",
              "name": "nextOffset",
              "type": "bytes"
            }
          ],
          "internalType": "struct Ghost.Payload",
          "name": "payload",
          "type": "tuple"
        },
        {
          "internalType": "bytes",
          "name": "newData",
          "type": "bytes"
        }
      ],
      "name": "addDataToPayload",
      "outputs": [
        {
          "components": [
            {
              "internalType": "bytes",
              "name": "data",
              "type": "bytes"
            },
            {
              "internalType": "bytes",
              "name": "nextOffset",
              "type": "bytes"
            }
          ],
          "internalType": "struct Ghost.Payload",
          "name": "",
          "type": "tuple"
        }
      ],
      "stateMutability": "pure",
      "type": "function"
    },
    {
      "inputs": [],
      "name": "newPayload",
      "outputs": [
        {
          "components": [
            {
              "internalType": "bytes",
              "name": "data",
              "type": "bytes"
            },
            {
              "internalType": "bytes",
              "name": "nextOffset",
              "type": "bytes"
            }
          ],
          "internalType": "struct Ghost.Payload",
          "name": "",
          "type": "tuple"
        }
      ],
      "stateMutability": "pure",
      "type": "function"
    },
    {
      "inputs": [
        {
          "internalType": "bytes",
          "name": "payloadData",
          "type": "bytes"
        }
      ],
      "name": "sendGhostTransaction",
      "outputs": [
        {
          "internalType": "bool",
          "name": "",
          "type": "bool"
        }
      ],
      "stateMutability": "nonpayable",
      "type": "function"
    },
    {
      "inputs": [
        {
          "internalType": "address",
          "name": "a",
          "type": "address"
        }
      ],
      "name": "toBytes",
      "outputs": [
        {
          "internalType": "bytes",
          "name": "b",
          "type": "bytes"
        }
      ],
      "stateMutability": "pure",
      "type": "function"
    }
  ],
  "bytecode": {
    "object": "0x608060405234801561001057600080fd5b506105d1806100206000396000f3fe608060405234801561001057600080fd5b50600436106100575760003560e01c80634b43f8381461005c57806356a8893c14610099578063593b79fe146100b957806389966ada146100eb578063af19752e1461010e575b600080fd5b60408051808201825260608082526020918201528151808301909252600082526080908201525b6040516100909190610255565b60405180910390f35b6100ac6100a7366004610429565b610121565b60405161009091906104a0565b6100ac6100c73660046104ba565b604080516001600160a01b0392909216600560a21b18601483015260348201905290565b6100fe6100f93660046104d5565b610199565b6040519015158152602001610090565b61008361011c366004610517565b6101ac565b604080516001600160a01b038516600560a21b1860148201526034810190915260609060009061015690858560548301610580565b60405160208183030381529060405290508060405160200161017891906105a8565b60408051808303601f19019052600082526020820190529695505050505050565b600081836000f050600160005260206000f35b604080518082019091526060808252602082015283516040516101d6919085908590602001610580565b60408051808303601f190181529190528452506020830180519190910190525090565b60005b838110156102145781810151838201526020016101fc565b83811115610223576000848401525b50505050565b600081518084526102418160208601602086016101f9565b601f01601f19169290920160200192915050565b6020815260008251604060208401526102716060840182610229565b90506020840151601f1984830301604085015261028e8282610229565b95945050505050565b634e487b7160e01b600052604160045260246000fd5b600082601f8301126102be57600080fd5b813567ffffffffffffffff808211156102d9576102d9610297565b604051601f8301601f19908116603f0116810190828211818310171561030157610301610297565b8160405283815286602085880101111561031a57600080fd5b836020870160208301376000602085830101528094505050505092915050565b60006040828403121561034c57600080fd5b6040516040810167ffffffffffffffff828210818311171561037057610370610297565b81604052829350843591508082111561038857600080fd5b610394868387016102ad565b835260208501359150808211156103aa57600080fd5b506103b7858286016102ad565b6020830152505092915050565b80356001600160a01b03811681146103db57600080fd5b919050565b60008083601f8401126103f257600080fd5b50813567ffffffffffffffff81111561040a57600080fd5b60208301915083602082850101111561042257600080fd5b9250929050565b6000806000806060858703121561043f57600080fd5b843567ffffffffffffffff8082111561045757600080fd5b6104638883890161033a565b9550610471602088016103c4565b9450604087013591508082111561048757600080fd5b50610494878288016103e0565b95989497509550505050565b6020815260006104b36020830184610229565b9392505050565b6000602082840312156104cc57600080fd5b6104b3826103c4565b600080602083850312156104e857600080fd5b823567ffffffffffffffff8111156104ff57600080fd5b61050b858286016103e0565b90969095509350505050565b60008060006040848603121561052c57600080fd5b833567ffffffffffffffff8082111561054457600080fd5b6105508783880161033a565b9450602086013591508082111561056657600080fd5b50610573868287016103e0565b9497909650939450505050565b600084516105928184602089016101f9565b8201838582376000930192835250909392505050565b600082516105ba8184602087016101f9565b919091019291505056fea164736f6c634300080c000a",
    "linkReferences": {}
  }
}