{
  "abi": [
    {
      "inputs": [
        {
          "internalType": "bytes",
          "name": "payload",
          "type": "bytes"
        }
      ],
      "name": "sendGhostTransaction",
      "outputs": [
        {
          "internalType": "bool",
          "name": "",
          "type": "bool"
        }
      ],
      "stateMutability": "nonpayable",
      "type": "function"
    }
  ],
  "bytecode": {
    "object": "0x608060405234801561001057600080fd5b5060dd8061001f6000396000f3fe6080604052348015600f57600080fd5b506004361060285760003560e01c806389966ada14602d575b600080fd5b603c60383660046063565b6050565b604051901515815260200160405180910390f35b600081836000f050600160005260206000f35b60008060208385031215607557600080fd5b823567ffffffffffffffff80821115608c57600080fd5b818501915085601f830112609f57600080fd5b81358181111560ad57600080fd5b86602082850101111560be57600080fd5b6020929092019691955090935050505056fea164736f6c634300080c000a",
    "linkReferences": {}
  }
}