{
  "abi": [
    {
      "inputs": [
        {
          "internalType": "bytes",
          "name": "_callData",
          "type": "bytes"
        }
      ],
      "name": "callDataCost",
      "outputs": [
        {
          "internalType": "uint256",
          "name": "",
          "type": "uint256"
        }
      ],
      "stateMutability": "pure",
      "type": "function"
    },
    {
      "inputs": [
        {
          "internalType": "string",
          "name": "hex_str",
          "type": "string"
        }
      ],
      "name": "hexStrToBytes",
      "outputs": [
        {
          "internalType": "bytes",
          "name": "",
          "type": "bytes"
        }
      ],
      "stateMutability": "pure",
      "type": "function"
    }
  ],
  "bytecode": {
    "object": "0x61080e61003a600b82828239805160001a60731461002d57634e487b7160e01b600052600060045260246000fd5b30600052607381538281f3fe73000000000000000000000000000000000000000030146080604052600436106100405760003560e01c806308e8ac3814610045578063666a95cf1461006e575b600080fd5b610058610053366004610688565b61008f565b60405161006591906106d9565b60405180910390f35b61008161007c366004610688565b61058b565b604051908152602001610065565b6060816000815181106100a4576100a461072e565b6020910101516001600160f81b031916600360fc1b1415806100ec5750816001815181106100d4576100d461072e565b6020910101516001600160f81b031916600f60fb1b14155b80610103575060028251610100919061075a565b15155b8061010f575060048251105b156101575760405162461bcd60e51b815260206004820152601460248201527312195e081cdd1c9a5b99c81b9bdd081d985b1a5960621b604482015260640160405180910390fd5b600060028084516101689190610784565b610172919061079b565b67ffffffffffffffff81111561018a5761018a6105fc565b6040519080825280601f01601f1916602001820160405280156101b4576020820181803683370190505b50905060025b835181101561058457835160109081906030908790859081106101df576101df61072e565b016020015160f81c1080159061020f575060398684815181106102045761020461072e565b016020015160f81c11155b1561023d5760308684815181106102285761022861072e565b016020015161023a919060f81c610784565b91505b60308661024b8560016107af565b8151811061025b5761025b61072e565b016020015160f81c10801590610295575060398661027a8560016107af565b8151811061028a5761028a61072e565b016020015160f81c11155b156102cd576030866102a88560016107af565b815181106102b8576102b861072e565b01602001516102ca919060f81c610784565b90505b60418684815181106102e1576102e161072e565b016020015160f81c10801590610311575060468684815181106103065761030661072e565b016020015160f81c11155b1561034a57604186848151811061032a5761032a61072e565b016020015161033c919060f81c610784565b61034790600a6107af565b91505b6041866103588560016107af565b815181106103685761036861072e565b016020015160f81c108015906103a257506046866103878560016107af565b815181106103975761039761072e565b016020015160f81c11155b156103e5576041866103b58560016107af565b815181106103c5576103c561072e565b01602001516103d7919060f81c610784565b6103e290600a6107af565b90505b60618684815181106103f9576103f961072e565b016020015160f81c108015906104295750606686848151811061041e5761041e61072e565b016020015160f81c11155b156104625760618684815181106104425761044261072e565b0160200151610454919060f81c610784565b61045f90600a6107af565b91505b6061866104708560016107af565b815181106104805761048061072e565b016020015160f81c108015906104ba575060668661049f8560016107af565b815181106104af576104af61072e565b016020015160f81c11155b156104fd576061866104cd8560016107af565b815181106104dd576104dd61072e565b01602001516104ef919060f81c610784565b6104fa90600a6107af565b90505b816010148061050c5750806010145b1561051657600080fd5b806105228360106107c7565b61052c91906107af565b60f81b84600161053d60028761079b565b6105479190610784565b815181106105575761055761072e565b60200101906001600160f81b031916908160001a905350505060028161057d91906107af565b90506101ba565b5092915050565b8051600090819081905b808310156105f4578483815181106105af576105af61072e565b01602001516001600160f81b0319166105d4576105cd6004836107af565b91506105e2565b6105df6010836107af565b91505b826105ec816107e6565b935050610595565b509392505050565b634e487b7160e01b600052604160045260246000fd5b600067ffffffffffffffff8084111561062d5761062d6105fc565b604051601f8501601f19908116603f01168101908282118183101715610655576106556105fc565b8160405280935085815286868601111561066e57600080fd5b858560208301376000602087830101525050509392505050565b60006020828403121561069a57600080fd5b813567ffffffffffffffff8111156106b157600080fd5b8201601f810184136106c257600080fd5b6106d184823560208401610612565b949350505050565b600060208083528351808285015260005b81811015610706578581018301518582016040015282016106ea565b81811115610718576000604083870101525b50601f01601f1916929092016040019392505050565b634e487b7160e01b600052603260045260246000fd5b634e487b7160e01b600052601260045260246000fd5b60008261076957610769610744565b500690565b634e487b7160e01b600052601160045260246000fd5b6000828210156107965761079661076e565b500390565b6000826107aa576107aa610744565b500490565b600082198211156107c2576107c261076e565b500190565b60008160001904831182151516156107e1576107e161076e565b500290565b60006000198214156107fa576107fa61076e565b506001019056fea164736f6c634300080c000a",
    "linkReferences": {}
  }
}